{
  "contractName": "OptionsRegistry",
  "abi": [
    {
      "constant": false,
      "inputs": [],
      "name": "unpause",
      "outputs": [],
      "payable": false,
      "stateMutability": "nonpayable",
      "type": "function"
    },
    {
      "constant": true,
      "inputs": [
        {
          "name": "account",
          "type": "address"
        }
      ],
      "name": "isPauser",
      "outputs": [
        {
          "name": "",
          "type": "bool"
        }
      ],
      "payable": false,
      "stateMutability": "view",
      "type": "function"
    },
    {
      "constant": true,
      "inputs": [],
      "name": "paused",
      "outputs": [
        {
          "name": "",
          "type": "bool"
        }
      ],
      "payable": false,
      "stateMutability": "view",
      "type": "function"
    },
    {
      "constant": false,
      "inputs": [],
      "name": "renouncePauser",
      "outputs": [],
      "payable": false,
      "stateMutability": "nonpayable",
      "type": "function"
    },
    {
      "constant": false,
      "inputs": [
        {
          "name": "account",
          "type": "address"
        }
      ],
      "name": "addPauser",
      "outputs": [],
      "payable": false,
      "stateMutability": "nonpayable",
      "type": "function"
    },
    {
      "constant": false,
      "inputs": [],
      "name": "pause",
      "outputs": [],
      "payable": false,
      "stateMutability": "nonpayable",
      "type": "function"
    },
    {
      "constant": true,
      "inputs": [],
      "name": "shareTokenSpender",
      "outputs": [
        {
          "name": "",
          "type": "address"
        }
      ],
      "payable": false,
      "stateMutability": "view",
      "type": "function"
    },
    {
      "inputs": [
        {
          "name": "_shareFactory",
          "type": "address"
        },
        {
          "name": "_shareTokenSpender",
          "type": "address"
        }
      ],
      "payable": false,
      "stateMutability": "nonpayable",
      "type": "constructor"
    },
    {
      "anonymous": false,
      "inputs": [
        {
          "indexed": true,
          "name": "market",
          "type": "address"
        },
        {
          "indexed": false,
          "name": "optionType",
          "type": "uint8"
        },
        {
          "indexed": false,
          "name": "topic",
          "type": "bytes32"
        },
        {
          "indexed": false,
          "name": "strike",
          "type": "uint256"
        },
        {
          "indexed": false,
          "name": "expiry",
          "type": "uint256"
        },
        {
          "indexed": false,
          "name": "shortToken",
          "type": "address"
        },
        {
          "indexed": false,
          "name": "longToken",
          "type": "address"
        }
      ],
      "name": "LogNewOptionsMarket",
      "type": "event"
    },
    {
      "anonymous": false,
      "inputs": [
        {
          "indexed": false,
          "name": "account",
          "type": "address"
        }
      ],
      "name": "Paused",
      "type": "event"
    },
    {
      "anonymous": false,
      "inputs": [
        {
          "indexed": false,
          "name": "account",
          "type": "address"
        }
      ],
      "name": "Unpaused",
      "type": "event"
    },
    {
      "anonymous": false,
      "inputs": [
        {
          "indexed": true,
          "name": "account",
          "type": "address"
        }
      ],
      "name": "PauserAdded",
      "type": "event"
    },
    {
      "anonymous": false,
      "inputs": [
        {
          "indexed": true,
          "name": "account",
          "type": "address"
        }
      ],
      "name": "PauserRemoved",
      "type": "event"
    },
    {
      "constant": true,
      "inputs": [],
      "name": "getMarkets",
      "outputs": [
        {
          "name": "",
          "type": "address[]"
        }
      ],
      "payable": false,
      "stateMutability": "view",
      "type": "function"
    },
    {
      "constant": true,
      "inputs": [
        {
          "name": "market",
          "type": "address"
        }
      ],
      "name": "getMarket",
      "outputs": [
        {
          "name": "topic",
          "type": "bytes32"
        },
        {
          "name": "strike",
          "type": "uint256"
        },
        {
          "name": "expiry",
          "type": "uint256"
        },
        {
          "name": "shortToken",
          "type": "address"
        },
        {
          "name": "longToken",
          "type": "address"
        },
        {
          "name": "optionType",
          "type": "uint8"
        }
      ],
      "payable": false,
      "stateMutability": "view",
      "type": "function"
    },
    {
      "constant": true,
      "inputs": [
        {
          "name": "topic",
          "type": "bytes32"
        }
      ],
      "name": "getMarketByTopic",
      "outputs": [
        {
          "name": "market",
          "type": "address"
        },
        {
          "name": "strike",
          "type": "uint256"
        },
        {
          "name": "expiry",
          "type": "uint256"
        },
        {
          "name": "shortToken",
          "type": "address"
        },
        {
          "name": "longToken",
          "type": "address"
        },
        {
          "name": "optionType",
          "type": "uint8"
        }
      ],
      "payable": false,
      "stateMutability": "view",
      "type": "function"
    },
    {
      "constant": false,
      "inputs": [
        {
          "name": "universe",
          "type": "address"
        },
        {
          "name": "_strike",
          "type": "uint256"
        },
        {
          "name": "_expiry",
          "type": "uint256"
        },
        {
          "name": "_feePerEthInWei",
          "type": "uint256"
        },
        {
          "name": "_denominationToken",
          "type": "address"
        },
        {
          "name": "_designatedReporterAddress",
          "type": "address"
        },
        {
          "name": "_minPrice",
          "type": "int256"
        },
        {
          "name": "_maxPrice",
          "type": "int256"
        },
        {
          "name": "_numTicks",
          "type": "uint256"
        },
        {
          "name": "_topic",
          "type": "bytes32"
        },
        {
          "name": "_description",
          "type": "string"
        },
        {
          "name": "_extraInfo",
          "type": "string"
        }
      ],
      "name": "createCallMarket",
      "outputs": [
        {
          "name": "_newMarket",
          "type": "address"
        }
      ],
      "payable": true,
      "stateMutability": "payable",
      "type": "function"
    },
    {
      "constant": false,
      "inputs": [
        {
          "name": "universe",
          "type": "address"
        },
        {
          "name": "_strike",
          "type": "uint256"
        },
        {
          "name": "_expiry",
          "type": "uint256"
        },
        {
          "name": "_feePerEthInWei",
          "type": "uint256"
        },
        {
          "name": "_denominationToken",
          "type": "address"
        },
        {
          "name": "_designatedReporterAddress",
          "type": "address"
        },
        {
          "name": "_minPrice",
          "type": "int256"
        },
        {
          "name": "_maxPrice",
          "type": "int256"
        },
        {
          "name": "_numTicks",
          "type": "uint256"
        },
        {
          "name": "_topic",
          "type": "bytes32"
        },
        {
          "name": "_description",
          "type": "string"
        },
        {
          "name": "_extraInfo",
          "type": "string"
        }
      ],
      "name": "createPutMarket",
      "outputs": [
        {
          "name": "_newMarket",
          "type": "address"
        }
      ],
      "payable": true,
      "stateMutability": "payable",
      "type": "function"
    },
    {
      "constant": false,
      "inputs": [
        {
          "name": "universe",
          "type": "address"
        }
      ],
      "name": "approveUniverse",
      "outputs": [],
      "payable": false,
      "stateMutability": "nonpayable",
      "type": "function"
    },
    {
      "constant": false,
      "inputs": [
        {
          "name": "universe",
          "type": "address"
        }
      ],
      "name": "withdrawRep",
      "outputs": [],
      "payable": false,
      "stateMutability": "nonpayable",
      "type": "function"
    }
  ],
  "bytecode": "0x608060405234801561001057600080fd5b506040516040806200153883398101604052805160209091015161003c33640100000000610076810204565b60018054600160a860020a031916610100600160a060020a039485160217905560028054600160a060020a03191691909216179055610153565b61008e6000826401000000006110e66100c582021704565b604051600160a060020a038216907f6719d08c1888103bea251a4ed56406bd0c3e69723c8a1686e017e7bbe159b6f890600090a250565b600160a060020a03811615156100da57600080fd5b6100ed828264010000000061011c810204565b156100f757600080fd5b600160a060020a0316600090815260209190915260409020805460ff19166001179055565b6000600160a060020a038216151561013357600080fd5b50600160a060020a03166000908152602091909152604090205460ff1690565b6113d580620001636000396000f3006080604052600436106100b65763ffffffff60e060020a6000350416630cda205981146100bb5780633f4ba83a1461012a57806346fbf68e146101415780635c975abb146101765780636ef8d66d1461018b57806382dc1ec4146101a05780638456cb59146101c1578063903149f4146101d6578063c1bf9b821461024b578063d4dfadbf14610260578063e3e7c6e4146102bc578063ec2c9016146102dd578063ef29697114610342578063f3264fc614610363575b600080fd5b3480156100c757600080fd5b506100d36004356103bc565b60408051600160a060020a038089168252602082018890529181018690528482166060820152908316608082015260a0810182600181111561011157fe5b60ff168152602001965050505050505060405180910390f35b34801561013657600080fd5b5061013f61040b565b005b34801561014d57600080fd5b50610162600160a060020a036004351661046f565b604080519115158252519081900360200190f35b34801561018257600080fd5b50610162610487565b34801561019757600080fd5b5061013f610490565b3480156101ac57600080fd5b5061013f600160a060020a036004351661049b565b3480156101cd57600080fd5b5061013f6104bb565b61022f60048035600160a060020a03908116916024803592604435926064359260843583169260a435169160c4359160e43591610104359161012435916101443580830192908201359161016435918201910135610520565b60408051600160a060020a039092168252519081900360200190f35b34801561025757600080fd5b5061022f610682565b34801561026c57600080fd5b50610281600160a060020a0360043516610691565b6040805187815260208101879052908101859052600160a060020a0380851660608301528316608082015260a0810182600181111561011157fe5b3480156102c857600080fd5b5061013f600160a060020a03600435166106db565b3480156102e957600080fd5b506102f26108fa565b60408051602080825283518183015283519192839290830191858101910280838360005b8381101561032e578181015183820152602001610316565b505050509050019250505060405180910390f35b34801561034e57600080fd5b5061013f600160a060020a036004351661095c565b61022f60048035600160a060020a03908116916024803592604435926064359260843583169260a435169160c4359160e43591610104359161012435916101443580830192908201359161016435918201910135610b6b565b600090815260046020818152604080842054600160a060020a03908116808652600393849052919094206002810154928101549381015460058201549154929693959081169391169160ff1690565b6104143361046f565b151561041f57600080fd5b60015460ff16151561043057600080fd5b6001805460ff191690556040805133815290517f5db9ee0a495bf2e6ff9c91a7834c1ba4fdd244a5e8aa4e537bd38aeae4b073aa9181900360200190a1565b6000610481818363ffffffff610cbb16565b92915050565b60015460ff1690565b61049933610cf2565b565b6104a43361046f565b15156104af57600080fd5b6104b881610d3a565b50565b6104c43361046f565b15156104cf57600080fd5b60015460ff16156104df57600080fd5b6001805460ff1916811790556040805133815290517f62e78cea01bee320cd4e420270b5ea74000d11b0c9f74754ebdbfc544b05a2589181900360200190a1565b600061052b3361046f565b151561053657600080fd5b60015460ff161561054657600080fd5b8e600160a060020a03166372d61dfa348f8f8f8f8f8f8f8f8f8f8f8f6040518e63ffffffff1660e060020a028152600401808d81526020018c81526020018b600160a060020a0316600160a060020a031681526020018a600160a060020a0316600160a060020a031681526020018981526020018881526020018781526020018660001916600019168152602001806020018060200183810383528787828181526020019250808284379091018481038352858152602001905085858082843782019150509e5050505050505050505050505050506020604051808303818588803b15801561063457600080fd5b505af1158015610648573d6000803e3d6000fd5b50505050506040513d602081101561065f57600080fd5b50519050610670818f600189610d82565b9e9d5050505050505050505050505050565b600254600160a060020a031681565b600160a060020a0390811660009081526003602081905260409091206001810154600282015492820154600483015460058401549354929694959194908216939091169160ff1690565b60006106e63361046f565b15156106f157600080fd5b81600160a060020a031663b80907f26040518163ffffffff1660e060020a028152600401602060405180830381600087803b15801561072f57600080fd5b505af1158015610743573d6000803e3d6000fd5b505050506040513d602081101561075957600080fd5b5051604080517f70a082310000000000000000000000000000000000000000000000000000000081523060048201529051600160a060020a03909216916370a08231916024808201926020929091908290030181600087803b1580156107be57600080fd5b505af11580156107d2573d6000803e3d6000fd5b505050506040513d60208110156107e857600080fd5b5051905060008111156108f65781600160a060020a031663b80907f26040518163ffffffff1660e060020a028152600401602060405180830381600087803b15801561083357600080fd5b505af1158015610847573d6000803e3d6000fd5b505050506040513d602081101561085d57600080fd5b5051604080517fa9059cbb000000000000000000000000000000000000000000000000000000008152336004820152602481018490529051600160a060020a039092169163a9059cbb916044808201926020929091908290030181600087803b1580156108c957600080fd5b505af11580156108dd573d6000803e3d6000fd5b505050506040513d60208110156108f357600080fd5b50505b5050565b6060600580548060200260200160405190810160405280929190818152602001828054801561095257602002820191906000526020600020905b8154600160a060020a03168152600190910190602001808311610934575b5050505050905090565b60001981600160a060020a031663b80907f26040518163ffffffff1660e060020a028152600401602060405180830381600087803b15801561099d57600080fd5b505af11580156109b1573d6000803e3d6000fd5b505050506040513d60208110156109c757600080fd5b5051604080517fdd62ed3e000000000000000000000000000000000000000000000000000000008152306004820152600160a060020a0385811660248301529151919092169163dd62ed3e9160448083019260209291908290030181600087803b158015610a3457600080fd5b505af1158015610a48573d6000803e3d6000fd5b505050506040513d6020811015610a5e57600080fd5b5051146104b85780600160a060020a031663b80907f26040518163ffffffff1660e060020a028152600401602060405180830381600087803b158015610aa357600080fd5b505af1158015610ab7573d6000803e3d6000fd5b505050506040513d6020811015610acd57600080fd5b5051604080517f095ea7b3000000000000000000000000000000000000000000000000000000008152600160a060020a03848116600483015260001960248301529151919092169163095ea7b39160448083019260209291908290030181600087803b158015610b3c57600080fd5b505af1158015610b50573d6000803e3d6000fd5b505050506040513d6020811015610b6657600080fd5b505050565b6000610b763361046f565b1515610b8157600080fd5b60015460ff1615610b9157600080fd5b8e600160a060020a03166372d61dfa348f8f8f8f8f8f8f8f8f8f8f8f6040518e63ffffffff1660e060020a028152600401808d81526020018c81526020018b600160a060020a0316600160a060020a031681526020018a600160a060020a0316600160a060020a031681526020018981526020018881526020018781526020018660001916600019168152602001806020018060200183810383528787828181526020019250808284379091018481038352858152602001905085858082843782019150509e5050505050505050505050505050506020604051808303818588803b158015610c7f57600080fd5b505af1158015610c93573d6000803e3d6000fd5b50505050506040513d6020811015610caa57600080fd5b50519050610670818f600089610d82565b6000600160a060020a0382161515610cd257600080fd5b50600160a060020a03166000908152602091909152604090205460ff1690565b610d0360008263ffffffff61109a16565b604051600160a060020a038216907fcd265ebaf09df2871cc7bd4133404a235ba12eff2041bb89d9c714a2621c7c7e90600090a250565b610d4b60008263ffffffff6110e616565b604051600160a060020a038216907f6719d08c1888103bea251a4ed56406bd0c3e69723c8a1686e017e7bbe159b6f890600090a250565b600080610d8d611372565b60008611610e2257604080517f08c379a000000000000000000000000000000000000000000000000000000000815260206004820152602160248201527f737472696b65207072696365206d757374206e6f74206265206e65676174697660448201527f6500000000000000000000000000000000000000000000000000000000000000606482015290519081900360840190fd5b600254610e39908890600160a060020a0316611134565b6040805160c08101909152919450925080866001811115610e5657fe5b81526020018560001916815260200187815260200188600160a060020a031663439f5ac26040518163ffffffff1660e060020a028152600401602060405180830381600087803b158015610ea957600080fd5b505af1158015610ebd573d6000803e3d6000fd5b505050506040513d6020811015610ed357600080fd5b50518152600160a060020a038086166020838101919091528582166040938401526005805460018181019092557f036b6384b5eca791c62761152d0c79bb0604c104a5fb6f4eb0703f3154bb3db0018054938d1673ffffffffffffffffffffffffffffffffffffffff19948516811790915560008a815260048452858120805490951682179094558352600390915291902082518154939450849391929091839160ff19909116908381811115610f8657fe5b021790555060208201518160010190600019169055604082015181600201556060820151816003015560808201518160040160006101000a815481600160a060020a030219169083600160a060020a0316021790555060a08201518160050160006101000a815481600160a060020a030219169083600160a060020a0316021790555090505086600160a060020a03167f18018a7194e523027e68fac6408612d41299da186830ca1ff8f1e1bc170af125868689856060015188886040518087600181111561105157fe5b60ff1681526020810196909652506040808601949094526060850192909252600160a060020a0390811660808501521660a0830152519081900360c0019150a250505050505050565b600160a060020a03811615156110af57600080fd5b6110b98282610cbb565b15156110c457600080fd5b600160a060020a0316600090815260209190915260409020805460ff19169055565b600160a060020a03811615156110fb57600080fd5b6111058282610cbb565b1561110f57600080fd5b600160a060020a0316600090815260209190915260409020805460ff19166001179055565b6000806001809054906101000a9004600160a060020a0316600160a060020a0316633e68680a85600160a060020a03166365957bf560006040518263ffffffff1660e060020a02815260040180828152602001915050602060405180830381600087803b1580156111a457600080fd5b505af11580156111b8573d6000803e3d6000fd5b505050506040513d60208110156111ce57600080fd5b50516040805160e060020a63ffffffff8516028152600160a060020a03928316600482015291871660248301525160448083019260209291908290030181600087803b15801561121d57600080fd5b505af1158015611231573d6000803e3d6000fd5b505050506040513d602081101561124757600080fd5b505160018054604080517f65957bf5000000000000000000000000000000000000000000000000000000008152600481019390935251929450600160a060020a03610100909104811692633e68680a92918816916365957bf59160248083019260209291908290030181600087803b1580156112c257600080fd5b505af11580156112d6573d6000803e3d6000fd5b505050506040513d60208110156112ec57600080fd5b50516040805160e060020a63ffffffff8516028152600160a060020a03928316600482015291871660248301525160448083019260209291908290030181600087803b15801561133b57600080fd5b505af115801561134f573d6000803e3d6000fd5b505050506040513d602081101561136557600080fd5b5051919491935090915050565b6040805160c08101909152806000815260006020820181905260408201819052606082018190526080820181905260a090910152905600a165627a7a72305820934c610df4f2d78d719691d0dd8d8ad9e568cd0cfccf08c7a8d904cdf22fc66d0029",
  "source": "pragma solidity 0.4.24;\n\nimport \"augur-core/source/contracts/reporting/IMarket.sol\";\nimport \"augur-core/source/contracts/reporting/IUniverse.sol\";\nimport \"augur-core/source/contracts/reporting/Universe.sol\";\nimport \"augur-core/source/contracts/trading/ICash.sol\";\nimport \"openzeppelin-solidity/contracts/lifecycle/Pausable.sol\";\nimport \"veil-contracts/contracts/VirtualAugurShareFactory.sol\";\n\ncontract OptionsRegistry is Pausable {\n    VirtualAugurShareFactory shareFactory;\n    address public shareTokenSpender;\n\n    constructor(VirtualAugurShareFactory _shareFactory, address _shareTokenSpender) public {\n        shareFactory = _shareFactory;\n        shareTokenSpender = _shareTokenSpender;\n    }\n\n    enum Option {\n        CALL,\n        PUT\n    }\n\n    event LogNewOptionsMarket(\n        address indexed market,\n        Option  optionType,\n        bytes32 topic,\n        uint256 strike,\n        uint256 expiry,\n        address shortToken,\n        address longToken\n    );\n\n    struct OptionsMarket {\n        Option  optionType;\n        bytes32 topic;\n        uint256 strike;\n        uint256 expiry;\n        address shortToken;\n        address longToken;\n    }\n\n    mapping (address => OptionsMarket) internal marketData;\n    mapping (bytes32 => address) internal topicToMarket;\n    address[] internal allMarkets;\n\n    function getMarkets() public view returns (address[]) {\n        return allMarkets;\n    }\n\n    function getMarket(address market)\n        public\n        view\n        returns (\n            bytes32 topic,\n            uint256 strike,\n            uint256 expiry,\n            address shortToken,\n            address longToken,\n            Option  optionType\n        )\n    { \n        topic  = marketData[market].topic;\n        strike = marketData[market].strike;\n        expiry = marketData[market].expiry;\n        shortToken = marketData[market].shortToken;\n        longToken  = marketData[market].longToken;\n        optionType = marketData[market].optionType;\n    }\n\n    function getMarketByTopic(bytes32 topic)\n        public\n        view\n        returns (\n            address market,\n            uint256 strike,\n            uint256 expiry,\n            address shortToken,\n            address longToken,\n            Option  optionType \n        )\n    {\n        market = topicToMarket[topic];\n        strike = marketData[market].strike;\n        expiry = marketData[market].expiry;\n        shortToken = marketData[market].shortToken;\n        longToken  = marketData[market].longToken;\n        optionType = marketData[market].optionType;\n    }\n\n    function createCallMarket(\n        address universe,\n        uint256 _strike,\n        uint256 _expiry, \n        uint256 _feePerEthInWei, \n        ICash   _denominationToken,\n        address _designatedReporterAddress, \n        int256  _minPrice, \n        int256  _maxPrice, \n        uint256 _numTicks, \n        bytes32 _topic, \n        string  _description, \n        string  _extraInfo\n    ) external \n      payable \n      onlyPauser\n      whenNotPaused\n      returns (IMarket _newMarket)\n    {\n        _newMarket = Universe(universe).createScalarMarket.value(msg.value)(\n            _expiry, \n            _feePerEthInWei,\n            _denominationToken,\n            _designatedReporterAddress, \n            _minPrice, \n            _maxPrice, \n            _numTicks, \n            _topic, \n            _description, \n            _extraInfo\n        );\n\n        registerMarket(\n            _newMarket,\n            _strike,\n            Option.CALL,\n            _topic\n        );\n    }\n\n    function createPutMarket(\n        address universe,\n        uint256 _strike,\n        uint256 _expiry, \n        uint256 _feePerEthInWei, \n        ICash   _denominationToken,\n        address _designatedReporterAddress, \n        int256  _minPrice, \n        int256  _maxPrice, \n        uint256 _numTicks, \n        bytes32 _topic, \n        string  _description, \n        string  _extraInfo\n    ) external \n      payable \n      onlyPauser\n      whenNotPaused\n      returns (IMarket _newMarket)\n    {\n        _newMarket = Universe(universe).createScalarMarket.value(msg.value)(\n            _expiry, \n            _feePerEthInWei,\n            _denominationToken,\n            _designatedReporterAddress, \n            _minPrice, \n            _maxPrice, \n            _numTicks, \n            _topic, \n            _description, \n            _extraInfo\n        );\n\n        registerMarket(\n            _newMarket,\n            _strike,\n            Option.PUT,\n            _topic\n        );\n    }\n\n    function registerMarket (\n        IMarket newMarket,\n        uint256 strike,\n        Option optionType,\n        bytes32 topic\n    ) internal {\n        require(strike > 0, \"strike price must not be negative\");\n\n        address virtualShortToken;\n        address virtualLongToken;\n        (virtualShortToken, virtualLongToken) = wrapShareTokens(newMarket, shareTokenSpender);\n\n        OptionsMarket memory optionsMarket = OptionsMarket(\n            optionType,\n            topic,\n            strike,\n            newMarket.getEndTime(),\n            virtualShortToken,\n            virtualLongToken\n        );\n\n        allMarkets.push(newMarket);\n        topicToMarket[topic] = newMarket;\n        marketData[newMarket] = optionsMarket;\n\n        emit LogNewOptionsMarket(\n            address(newMarket),\n            optionType,\n            topic,\n            strike,\n            optionsMarket.expiry,\n            virtualShortToken,\n            virtualLongToken\n        );\n    }\n\n    function wrapShareTokens(IMarket newMarket, address spender)\n        internal\n        returns (address virtualShortToken, address virtualLongToken)\n    {\n        virtualShortToken = shareFactory.create(address(newMarket.getShareToken(0)), spender);\n        virtualLongToken  = shareFactory.create(address(newMarket.getShareToken(1)), spender);\n    }\n\n    function approveUniverse(\n        address universe\n    ) public {\n        if(IUniverse(universe).getReputationToken().allowance(this, universe) != uint256(-1)){\n            IUniverse(universe).getReputationToken().approve(universe, uint256(-1));\n        }\n    }\n\n    function withdrawRep(\n        address universe\n    ) external\n      onlyPauser\n    {\n        uint256 balance = IUniverse(universe).getReputationToken().balanceOf(this);\n        if(balance > 0) {\n            IUniverse(universe).getReputationToken().transfer(msg.sender, balance);\n        }\n    }\n}\n",
  "sourcePath": "/Users/sam/dev/hackathons/coinlist0x/vegarelay/0xptions-contracts/contracts/OptionsRegistry.sol",
  "compiler": {
    "name": "solc",
    "version": "0.4.24+commit.e67f0147.Emscripten.clang"
  },
  "schemaVersion": "2.0.1",
  "updatedAt": "2019-02-03T00:54:22.913Z"
}